:020000040800F2
:1000000000000220B92F0008F50C0008FB0C0008C6
:10001000010D0008070D00080D0D0008000000008C
:10002000000000000000000000000000130D0008A8
:10003000210D0008000000002F0D00083D0D0008F4
:1000400009300008093000080930000809300008AC
:10005000093000080930000809300008093000089C
:10006000093000080930000809300008093000088C
:10007000093000080930000809300008093000087C
:10008000093000080930000809300008093000086C
:10009000093000080930000809300008093000085C
:1000A000490D00085D0D0008710D0008850D000860
:1000B0000930000809300008990D000809300008CF
:1000C000093000080930000809300008093000082C
:1000D000093000080930000809300008093000081C
:1000E000093000080930000809300008093000080C
:1000F00009300008093000080930000809300008FC
:1001000009300008093000080930000809300008EB
:1001100009300008093000080930000809300008DB
:1001200009300008093000080930000809300008CB
:10013000093000080000000000000000093000083D
:1001400009300008093000080930000809300008AB
:10015000093000080930000809300008093000089B
:10016000093000080930000809300008093000088B
:1001700009300008093000080930000800000000BC
:10018000000000000930000800000000000000002E
:1001900009300008000000000000000009300008DD
:1001A000000000000000000000000000093000080E
:1001B000093000080930000809300008093000083B
:0401C00009300008FA
:1001C40010B5054C237833B9044B13B10448AFF38D
:1001D40000800123237010BD2C00002000000000CB
:1001E4006430000808B5034B1BB103490348AFF35F
:1001F400008008BD000000003000002064300008CA
:1002040053B94AB9002908BF00281CBF4FF0FF3179
:100214004FF0FF3000F07AB9ADF1080C6DE904CE6F
:1002240000F006F8DDF804E0DDE9022304B07047CD
:100234002DE9F0478C460D460446089E002B51D10B
:100244008A4217466DD9B2FA82FEBEF1000F0BD076
:10025400CEF1200C01FA0EF520FA0CFC02FA0EF78E
:100264004CEA050C00FA0EF44FEA174A250CBCFBC5
:10027400FAF81FFA87F90AFB18CC45EA0C4508FB83
:1002840009F3AB420AD9ED1908F1FF3280F023815A
:10029400AB4240F22081A8F102083D44ED1AA4B219
:1002A400B5FBFAF00AFB105544EA054400FB09F9D2
:1002B400A14509D9E41900F1FF3380F00A81A14571
:1002C40040F2078102383C44A4EB090440EA0840A8
:1002D4000021002E61D024FA0EF4002334607360F0
:1002E400BDE8F0878B4207D9002E54D0002186E860
:1002F40021000846BDE8F087B3FA83F1002940F0F5
:100304008E80AB4202D3824200F2FA80841A65EBFB
:1003140003050120AC46002E3FD086E81010BDE84E
:10032400F08712B90127B7FBF2F7B7FA87FEBEF1DF
:10033400000F34D1EB1B3A0C1FFA87FC0121B3FBED
:10034400F2F8250C02FB183345EA03450CFB08F3CD
:10035400AB4207D9ED1908F1FF3002D2AB4200F2EB
:10036400D1808046ED1AA3B2B5FBF2F002FB105522
:1003740043EA05440CFB00FCA44507D9E41900F149
:10038400FF3302D2A44500F2B8801846A4EB0C0453
:1003940040EA08409DE731463046BDE8F087CEF19B
:1003A400200405FA0EF307FA0EF720FA04F83A0CC3
:1003B40025FA04F448EA0308B4FBF2F14FEA1845BD
:1003C40002FB11441FFA87FC45EA044501FB0CF3C8
:1003D400AB4200FA0EF409D9ED1901F1FF3080F0B7
:1003E4008A80AB4240F2878002393D44EB1A1FFAFF
:1003F40088F5B3FBF2F002FB103345EA034500FB3A
:100404000CF3AB4207D9ED1900F1FF386FD2AB42C0
:100414006DD902383D44EB1A40EA01418FE7C1F13E
:10042400200722FA07F88B4005FA01F448EA03038F
:1004340020FA07FE4FEA134CFD404EEA040EB5FBCA
:10044400FCF94FEA1E440CFB19551FFA83F844EAE1
:10045400054509FB08F4AC4202FA01F200FA01FA7C
:1004640008D9ED1809F1FF3043D2AC4241D9A9F1C2
:1004740002091D442D1B1FFA8EFEB5FBFCF00CFB7C
:1004840010554EEA054400FB08F8A04507D9E418C6
:1004940000F1FF3529D2A04527D902381C4440EA8F
:1004A4000940A4EB0804A0FB02894C45C6464D460E
:1004B40015D312D056B1BAEB0E0364EB050404FA5B
:1004C40007F7CB401F43CC40376074600021BDE880
:1004D400F0871846F8E69046E0E6C245EAD2B8EB63
:1004E400020E69EB03050138E4E72846D7E74046E6
:1004F40091E78146BEE7014678E702383C4445E788
:10050400084608E7A8F102083D442BE7704700BFFE
:1005140080B58AB000AF07F1140300221A605A6054
:100524009A60DA601A6100233B613B4A3A4B1B6BC9
:1005340043F080031363384B1B6B03F080033B6170
:100544003B690023FB60344A334B1B6B43F00403C9
:100554001363314B1B6B03F00403FB60FB68002344
:10056400BB602D4A2C4B1B6B43F0010313632A4BD6
:100574001B6B03F00103BB60BB6800237B60264A4E
:10058400254B1B6B43F002031363234B1B6B03F0DC
:1005940002037B607B6800220F21204801F0A4F84D
:1005A40000224FF4F0611E4801F09EF800224FF43F
:1005B40087611C4801F098F80F237B610123BB611C
:1005C4000123FB6100233B6207F11403194613481E
:1005D40000F0F8FE4FF4F0637B610123BB6101235B
:1005E400FB6103233B6207F1140319460C4800F036
:1005F400E9FE4FF487637B610123BB610023FB6148
:1006040000233B6207F114031946064800F0DAFEA2
:1006140000BF2837BD4680BD0038024000080240B4
:10062400000002400004024080B584B000AF3B46A5
:1006340000221A605A609A60DA6000F01FFD00F030
:1006440075F8FFF765FF00F0C5FB00F013FC3B46AF
:10065400184600F0D7F83B68092B0BD800224FF45A
:100664008071304801F040F8012201212E4801F048
:100674003BF80AE001224FF480712A4801F034F873
:1006840000220121284801F02FF87B68092B0BD8A0
:1006940000224FF40071234801F026F801220221C0
:1006A400214801F021F80AE001224FF400711D48AD
:1006B40001F01AF8002202211B4801F015F8BB686A
:1006C400092B0BD800224FF48061164801F00CF876
:1006D40001220421144801F007F80AE001224FF432
:1006E4008061104801F000F8002204210E4800F057
:1006F400FBFFFB68092B0AD800228021094800F07F
:10070400F3FF01220821084800F0EEFF9FE70122D1
:100714008021044800F0E8FF00220821024800F08C
:10072400E3FF94E7000002400008024080B594B063
:1007340000AF07F11C0334220021184602F088FCA4
:1007440007F1080300221A605A609A60DA601A619D
:1007540000237B60294A294B1B6C43F080531364AC
:10076400264B1B6C03F080537B607B6800233B604B
:10077400234A234B1B6823F4404343F48043136010
:100784001F4B1B6803F440433B603B680123FB6140
:100794004FF480333B6202237B634FF48003BB63DB
:1007A4000423FB6348233B6402237B640223BB646E
:1007B4000223FB6407F11C03184601F04BFA0346BD
:1007C400002B01D000F068FA0F23BB600223FB600A
:1007D40000233B614FF480537B610023BB6107F12D
:1007E40008030221184600F099FF0346002B01D0AC
:1007F40000F052FA00BF5037BD4680BD00380240B9
:100804000070004080B582B000AF786001220821FA
:10081400634800F069FF634801F0A1FC00BF624B2C
:100824001B78002BFBD0614B1B6800225A6200210D
:100834005E4801F00FFD5C4B00221A700022082173
:10084400574800F051FF00BF594B1B78002BFBD0D9
:10085400574B00221A70574B1B68574AA2FB0323BD
:100864005A097B681A60502000F07AFC012220218A
:100874004B4800F039FF4B4801F071FC00BF4A4B74
:100884001B78002BFBD0494B1B6800225A620421C1
:10089400464801F0DFFC444B00221A70002220215C
:1008A4003F4800F021FF00BF414B1B78002BFBD0D9
:1008B4003F4B00221A707B6804333E4A12683E495B
:1008C400A1FB021252091A60502000F049FC0122D7
:1008D4001021334800F008FF324801F040FC00BF0B
:1008E400314B1B78002BFBD0304B1B6800225A6223
:1008F40008212E4801F0AEFC2B4B00221A70002276
:100904001021274800F0F0FE00BF294B1B78002B74
:10091400FBD0274B00221A707B680833254A1268E3
:100924002549A1FB021252091A60502000F018FC5C
:1009340001224FF480611A4800F0D6FE194801F0F4
:100944000EFC00BF184B1B78002BFBD0174B1B6809
:1009540000225A620C21154801F07CFC124B002243
:100964001A7000224FF480610D4800F0BDFE00BFF4
:100974000F4B1B78002BFBD00D4B00221A707B68A9
:100984000C330C4A12680C49A1FB021252091A607A
:10099400502000F0E5FB00BF0837BD4680BD00BF16
:1009A4000004024098000020490000205800002064
:1009B4004A0000204C00002009CB3D8D80B582B058
:1009C40000AF78607B681B68084A934209D1786855
:1009D40001F0E9FB7B681B6800225A62044B012288
:1009E4001A7000BF0837BD4680BD00BF000001403B
:1009F4004900002090B583B000AFC7E90001824BE5
:100A04001B78002B74D1814B00221A603B68194675
:100A14007F4801F053FF02467C4B1A607A4B012257
:100A24001A7097E81800234308D1794B1B68784A59
:100A34001268126A22F00A021A6225E097E8180086
:100A4400002C08BF042B08D1714B1B68704A126834
:100A5400126A22F0A0021A6216E097E81800002C2D
:100A640008BF082B08D16A4B1B68694A1268126ACE
:100A740022F420621A6207E0654B1B68644A12681C
:100A8400126A22F420421A6297E81800234308D11C
:100A94005F4B1B685E4A1268126A42F002021A62D5
:100AA400AEE097E81800002C08BF042B08D1584B7F
:100AB4001B68574A1268126A42F020021A629FE0C9
:100AC40097E81800002C08BF082B08D1504B1B686E
:100AD4004F4A1268126A42F400721A6290E04C4B58
:100AE4001B684B4A1268126A42F400521A6287E089
:100AF400484B00221A603B681946454801F0DEFE67
:100B04000246444B1A60404B00221A70414B1A684B
:100B14003E4B1B689A4207D93E4B1A683B4B1B68F5
:100B2400D31A3D4A136001E000F0B6F8384B1B6855
:100B340000225A6297E81800234308D1344B1B68FB
:100B4400334A1268126A22F00A021A6225E097E810
:100B54001800002C08BF042B08D12D4B1B682C4A0D
:100B64001268126A22F0A0021A6216E097E81800CE
:100B7400002C08BF082B08D1254B1B68244A126897
:100B8400126A22F420621A6207E0214B1B68204A91
:100B94001268126A22F420421A6297E8180023436A
:100BA40006D11B4B1B681A4A1268126A1A621FE0AC
:100BB40097E81800002C08BF042B06D1144B1B68BF
:100BC400134A1268126A1A6212E097E81800002C9D
:100BD40008BF082B06D10E4B1B680D4A1268126A17
:100BE4001A6205E00A4B1B68094A1268126A1A6203
:100BF4003B681946064801F095FB084B01221A7020
:100C040000BF0C37BD4690BD4800002050000020B6
:100C140058000020540000204C0000204A0000200E
:100C240090B583B000AF78607B681B68184A934224
:100C34002AD17B681B7F012B05D1164B18CB184694
:100C44002146FFF7D7FE7B681B7F022B06D1114B91
:100C5400D3E9023418462146FFF7CCFE7B681B7F9C
:100C6400042B06D10B4BD3E9043418462146FFF775
:100C7400C1FE7B681B7F082B06D1064BD3E90634E3
:100C840018462146FFF7B6FE00BF0C37BD4690BD9F
:100C9400000800400000002080B400AF72B6FEE7F8
:100CA40080B483B000AF00237B60104A0F4B5B6CB1
:100CB40043F4804353640D4B5B6C03F480437B60CB
:100CC4007B6800233B60094A084B1B6C43F080534C
:100CD4001364064B1B6C03F080533B603B6800BFFE
:100CE4000C37BD465DF8047B704700BF00380240F6
:100CF40080B400AFFEE780B400AFFEE780B400AF7D
:100D0400FEE780B400AFFEE780B400AFFEE780B436
:100D140000AF00BFBD465DF8047B704780B400AFF0
:100D240000BFBD465DF8047B704780B400AF00BFD0
:100D3400BD465DF8047B704780B500AF00F0F0F964
:100D440000BF80BD80B500AF024801F05BFB00BF6F
:100D540080BD00BF9800002080B500AF024801F0BC
:100D640051FB00BF80BD00BF9800002080B500AFDC
:100D7400024801F047FB00BF80BD00BF980000207F
:100D840080B500AF024801F03DFB00BF80BD00BF4D
:100D94009800002080B500AF024801F033FB00BF8B
:100DA40080BD00BF5800002080B400AF084A084B43
:100DB400D3F8883043F47003C2F88830044B4FF002
:100DC40000629A6000BFBD465DF8047B704700BFB7
:100DD40000ED00E080B586B000AF07F10803002203
:100DE4001A605A609A60DA603B4600221A605A60C0
:100DF4001E4B1F4A1A601D4B07225A601B4B0022D0
:100E04009A601A4B6322DA60184B00221A61174B5E
:100E140000225A61154B00229A61144801F074F9BA
:100E24000346002B01D0FFF737FF4FF48053BB601C
:100E340007F1080319460D4801F088FC0346002B0E
:100E440001D0FFF729FF00233B6000237B603B4672
:100E54001946064802F01EF80346002B01D0FFF79E
:100E64001BFF00BF1837BD4680BD00BF980000209F
:100E74000000014080B586B000AF07F110030022E6
:100E84001A605A603B4600221A605A609A60DA601F
:100E9400304B314A1A602F4B47225A602D4B0022A7
:100EA4009A602C4B4FF6FF72DA602A4B00221A61CB
:100EB400284B00229A61274801F0A0F90346002B31
:100EC40001D0FFF7E9FE00233B6100237B6107F1BA
:100ED400100319461F4801F0DDFF0346002B01D023
:100EE400FFF7DAFE00233B6001237B600023BB6035
:100EF4000023FB603B4600221946164801F08AFB9A
:100F04000346002B01D0FFF7C7FE3B4604221946D7
:100F1400104801F07FFB0346002B01D0FFF7BCFE15
:100F24003B46082219460B4801F074FB0346002B8C
:100F340001D0FFF7B1FE3B460C221946054801F0EB
:100F440069FB0346002B01D0FFF7A6FE00BF18374C
:100F5400BD4680BD580000200008004080B584B024
:100F640000AF78607B681B681A4A93422DD1002336
:100F7400FB60194A184B5B6C43F001035364164B36
:100F84005B6C03F00103FB60FB6800220021182066
:100F940000F0E1F9182000F0FAF9002200211920EC
:100FA40000F0D9F9192000F0F2F9002200211A20EA
:100FB40000F0D1F91A2000F0EAF9002200211B20E8
:100FC40000F0C9F91B2000F0E2F900BF1037BD465C
:100FD40080BD00BF000001400038024080B58AB0E7
:100FE40000AF786007F1140300221A605A609A6017
:100FF400DA601A617B681B681D4A934234D100236E
:101004003B611C4A1B4B1B6C43F004031364194BD8
:101014001B6C03F004033B613B690023FB60154A2E
:10102400144B1B6B43F002031363124B1B6B03F053
:101034000203FB60FB684FF470737B610223BB61A6
:101044000023FB6100233B6202237B6207F114034C
:101054001946094800F0B6F9002200211E2000F0CC
:101064007AF91E2000F093F900BF2837BD4680BDF1
:1010740000080040003802400004024080B500AF80
:101084000E4A0E4B1B6843F4007313600B4A0B4B60
:101094001B6843F480631360084A084B1B6843F4DD
:1010A40080731360032000F04BF9002000F008F86F
:1010B400FFF7F6FD0023184680BD00BF003C024048
:1010C40080B582B000AF7860124B1A68124B1B785F
:1010D40019464FF47A73B3FBF1F3B2FBF3F31846FA
:1010E40000F063F90346002B01D001230EE07B6876
:1010F4000F2B0AD8002279684FF0FF3000F02BF94B
:10110400064A7B681360002300E001231846083771
:10111400BD4680BD200000202800002024000020BF
:1011240080B400AF064B1B781A46064B1B68134469
:10113400044A136000BFBD465DF8047B704700BFDE
:1011440028000020D800002080B400AF034B1B68A7
:101154001846BD465DF8047B704700BFD8000020E8
:1011640080B584B000AF7860FFF7EEFFB8607B68AD
:10117400FB60FB68B3F1FF3F05D0094B1B781A46AF
:10118400FB681344FB6000BFFFF7DEFF0246BB6849
:10119400D21AFB689A42F7D300BF1037BD4680BD10
:1011A4002800002080B485B000AF78607B6803F02D
:1011B4000703FB600C4BDB68BB60BA684FF6FF03A8
:1011C4001340BB60FB681A02BB68134343F0BF6360
:1011D40043F40033BB60044ABB68D36000BF1437D8
:1011E400BD465DF8047B704700ED00E080B400AFBD
:1011F400044BDB681B0A03F007031846BD465DF881
:10120400047B704700ED00E080B483B000AF034678
:10121400FB7197F90730002B0BDB094997F907306D
:101224005B09FA7902F01F02012000FA02F241F888
:10123400232000BF0C37BD465DF8047B704700BF18
:1012440000E100E080B483B000AF03463960FB7175
:1012540097F90730002B0ADB0D4997F907303A68F4
:10126400D2B21201D2B20B4483F800230AE0094936
:10127400FB7903F00F03043B3A68D2B21201D2B2F5
:101284000B441A7600BF0C37BD465DF8047B7047EB
:1012940000E100E000ED00E080B489B000AFF86048
:1012A400B9607A60FB6803F00703FB61FB69C3F173
:1012B4000703042B28BF0423BB61FB690433062BFB
:1012C40002D9FB69033B00E000237B610122BB6977
:1012D40002FA03F35A1EBB681A407B699A40012143
:1012E4007B6901FA03F3591E7B680B4013431846CC
:1012F4002437BD465DF8047B7047000080B582B09A
:1013040000AF78607B68013BB3F1807F01D3012398
:101314000FE00A4A7B68013B53600F214FF0FF3016
:10132400FFF790FF054B00229A60044B07221A60D6
:10133400002318460837BD4680BD00BF10E000E01A
:1013440080B582B000AF78607868FFF72BFF00BFEC
:101354000837BD4680BD80B586B000AF0346B9608E
:101364007A60FB7300237B61FFF740FF78617A6842
:10137400B9687869FFF790FF024697F90F30114674
:101384001846FFF75FFF00BF1837BD4680BD80B524
:1013940082B000AF0346FB7197F907301846FFF798
:1013A40033FF00BF0837BD4680BD80B582B000AFB3
:1013B40078607868FFF7A2FF034618460837BD46F1
:1013C40080BD000080B489B000AF7860396000232C
:1013D4007B6100233B610023BB610023FB6165E16A
:1013E4000122FB6902FA03F37B613B681A687B699B
:1013F40013403B613A697B699A4240F054813B68EF
:101404005B68012B0BD03B685B68022B07D03B6801
:101414005B68112B03D03B685B68122B30D17B686F
:101424009B68BB61FB695B00032202FA03F3DB43A5
:10143400BA691340BB613B68DA68FB695B0002FA76
:1014440003F3BA691343BB617B68BA699A607B682A
:101454005B68BB610122FB6902FA03F3DB43BA69EF
:101464001340BB613B685B681B0903F00102FB6925
:1014740002FA03F3BA691343BB617B68BA695A6021
:101484007B68DB68BB61FB695B00032202FA03F340
:10149400DB43BA691340BB613B689A68FB695B0034
:1014A40002FA03F3BA691343BB617B68BA69DA6071
:1014B4003B685B68022B03D03B685B68122B23D12B
:1014C400FB69DA087B68083253F82230BB61FB6998
:1014D40003F007039B000F2202FA03F3DB43BA690C
:1014E4001340BB613B681A69FB6903F007039B0067
:1014F40002FA03F3BA691343BB61FB69DA087B6838
:101504000832B96943F822107B681B68BB61FB6928
:101514005B00032202FA03F3DB43BA691340BB61A5
:101524003B685B6803F00302FB695B0002FA03F3A8
:10153400BA691343BB617B68BA691A603B685B682C
:1015440003F08053002B00F0AE800023FB605C4A64
:101554005B4B5B6C43F480435364594B5B6C03F407
:101564008043FB60FB68574AFB699B08023352F8CF
:101574002330BB61FB6903F003039B000F2202FAD3
:1015840003F3DB43BA691340BB617B684E4A934261
:1015940025D07B684D4A93421FD07B684C4A9342C6
:1015A40019D07B684B4A934213D07B684A4A9342D2
:1015B4000DD07B68494A934207D07B68484A9342DE
:1015C40001D106230CE007230AE0052308E00423E5
:1015D40006E0032304E0022302E0012300E00023E9
:1015E400FA6902F0030292009340BA691343BB61A3
:1015F4003449FB699B080233BA6941F82320394B0B
:101604001B68BB613B69DB43BA691340BB613B6840
:101614005B6803F48033002B03D0BA693B6913433E
:10162400BB61304ABB6913602E4B5B68BB613B698D
:10163400DB43BA691340BB613B685B6803F4003366
:10164400002B03D0BA693B691343BB61254ABB69CC
:101654005360244B9B68BB613B69DB43BA6913400D
:10166400BB613B685B6803F48013002B03D0BA6949
:101674003B691343BB611B4ABB699360194BDB682D
:10168400BB613B69DB43BA691340BB613B685B6880
:1016940003F40013002B03D0BA693B691343BB6105
:1016A400104ABB69D360FB690133FB61FB690F2BF3
:1016B4007FF696AE00BF2437BD465DF8047B7047C5
:1016C400003802400038014000000240000402409B
:1016D40000080240000C02400010024000140240C6
:1016E40000180240003C014080B483B000AF786031
:1016F4000B467B8013467B707B78002B03D07A8863
:101704007B689A6103E07B881A047B689A6100BF56
:101714000C37BD465DF8047B7047000080B584B08B
:1017240000AF786039607B68002B01D10123CCE0E5
:10173400684B1B6803F00F023B689A420CD2654B5E
:101744003A68D2B21A70634B1B6803F00F023B680D
:101754009A4201D00123B8E07B681B6803F00203BE
:10176400002B20D07B681B6803F00403002B05D0FA
:10177400594A594B9B6843F4E05393607B681B6858
:1017840003F00803002B05D0534A534B9B6843F4E2
:10179400604393605049504B9B6823F0F0027B6890
:1017A4009B6813438B607B681B6803F00103002B69
:1017B40044D07B685B68012B07D1474B1B6803F45B
:1017C4000033002B19D101237FE07B685B68022B77
:1017D40003D07B685B68032B07D13F4B1B6803F086
:1017E4000073002B09D101236FE03B4B1B6803F00E
:1017F4000203002B01D1012367E03749364B9B6874
:1018040023F003027B685B6813438B60FFF79CFC47
:10181400F8600AE0FFF798FC0246FB68D31A41F22D
:101824008832934201D903234FE02B4B9B6803F08A
:101834000C027B685B689B009A42EBD1254B1B68CA
:1018440003F00F023B689A420CD9224B3A68D2B299
:101854001A70204B1B6803F00F023B689A4201D0B8
:10186400012332E07B681B6803F00403002B08D0DB
:101874001949194B9B6823F4E0527B68DB681343D6
:101884008B607B681B6803F00803002B09D01249A6
:10189400114B9B6823F460427B681B69DB00134394
:1018A4008B6000F021F801460B4B9B681B0903F089
:1018B4000F030A4AD35C21FA03F3094A1360094B64
:1018C4001B681846FFF7FCFB002318461037BD467B
:1018D40080BD00BF003C0240003802407C3000085C
:1018E40020000020240000202DE9F04FA1B000AF1B
:1018F40000237B670023FB6700233B670023FB6611
:101904000023BB67A04B9B6803F00C030C2B00F275
:10191400938101A252F823F0511900083D1C0008DC
:101924003D1C00083D1C0008571900083D1C000818
:101934003D1C00083D1C00085D1900083D1C000802
:101944003D1C00083D1C0008D91A00088F4BBB67DA
:1019540075E18F4BBB6772E18B4B5B6803F03F0310
:101964007B67894B5B6803F48003002B56D0864B5E
:101974005B689B094FF0000440F2FF114FF0000236
:1019840001EA030102EA04020B4614466001786688
:10199400786E40EAD36078665B013B66D7E9183419
:1019A4005B1A64EB0204A001F865F86D40EA9360E9
:1019B400F8659801B865D7E91656ED1A66EB040682
:1019C4003346DB007B657B6D284643EA50737B65B9
:1019D4002B46DB003B65D7E914341D4626466B18BD
:1019E40046EB0204184621460B465B02FB64FB6C83
:1019F400024643EAD253FB6403465B02BB64D7E965
:101A04001234184621467B6F4FF000041A462346D1
:101A1400FEF7F6FB03460C46FB674DE05A4B5B684A
:101A24009B094FF0000440F2FF114FF0000201EA5D
:101A3400030102EA04020B46144660017864786CE0
:101A440040EAD36078645B013B64D7E910345B1AE5
:101A540064EB02044FEA841B4BEA936B4FEA831A4C
:101A6400BAEB030A6BEB040B4FEACB03FB63FB6B90
:101A740043EA5A73FB634FEACA03BB63D7E90EAB6D
:101A84001AEB010A4BEB020B4FEA8B237B637B6B54
:101A940043EA9A537B634FEA8A233B63D7E90CAB4F
:101AA400504659467B6F4FF000041A462346FEF712
:101AB400A7FB03460C46FB67334B5B681B0C03F028
:101AC400030301335B003B67FA6F3B6FB2FBF3F335
:101AD400BB67B4E02C4B5B6803F03F037B672A4B86
:101AE4005B6803F48003002B54D0274B5B689B098D
:101AF4004FF0000440F2FF114FF0000201EA03012D
:101B040002EA04020B4614466001F862F86A40EAED
:101B1400D360F8625B01BB62D7E90A345B1A64EBF9
:101B240002044FEA841949EA93694FEA8318B8EB2F
:101B3400030869EB04094FEAC9037B627B6A43EA41
:101B440058737B624FEAC8033B62D7E9088918EBF4
:101B5400010849EB02094FEA4923FB61FB6943EAA7
:101B6400D853FB614FEA4823BB61D7E90689404655
:101B740049467B6F4FF000041A462346FEF740FBAC
:101B840003460C46FB674BE0003802400024F40097
:101B940000127A002D4B5B689B094FF0000440F261
:101BA400FF114FF0000201EA030102EA04020B46AE
:101BB400144660017861786940EAD36078615B011A
:101BC4003B61D7E904345B1A64EB0204A60146EADC
:101BD40093669D01ED1A66EB0406F300FB60FB6857
:101BE40043EA5573FB60EB00BB60D7E902566D18FE
:101BF40046EB0206B3027B607B6843EA95537B6045
:101C0400AB023B6097E86000284631467B6F4FF09B
:101C140000041A462346FEF7F3FA03460C46FB6714
:101C24000A4B5B681B0F03F00703FB66FA6FFB6E3E
:101C3400B2FBF3F3BB6702E0054BBB6700BFBB6FAE
:101C440018468437BD46BDE8F08F00BF0038024017
:101C54000024F40080B586B000AF786000233B61B7
:101C64007B681B6803F00103002B00F08380954B15
:101C74009B6803F00C03042B19D0924B9B6803F070
:101C84000C03082B06D18F4B5B6803F48003B3F578
:101C9400800F0CD08B4B9B6803F00C030C2B12D1E0
:101CA400884B5B6803F48003B3F5800F0BD1854B3D
:101CB4001B6803F40033002B5BD07B685B68002B4C
:101CC40057D1012316E27B685B68B3F5803F06D1E8
:101CD4007C4A7C4B1B6843F4803313601DE07B68B3
:101CE4005B68B3F5A02F0CD1764A764B1B6843F49E
:101CF40080231360734A734B1B6843F4803313606F
:101D04000BE0704A6F4B1B6823F4803313606D4AF9
:101D14006C4B1B6823F4802313607B685B68002B87
:101D240013D0FFF711FA386108E0FFF70DFA024605
:101D34003B69D31A642B01D90323DBE1614B1B6894
:101D440003F40033002BF0D014E0FFF7FDF9386101
:101D540008E0FFF7F9F902463B69D31A642B01D96D
:101D64000323C7E1574B1B6803F40033002BF0D166
:101D740000E000BF7B681B6803F00203002B6FD0F8
:101D8400504B9B6803F00C03002B17D04D4B9B6802
:101D940003F00C03082B05D14A4B5B6803F4800362
:101DA400002B0BD0474B9B6803F00C030C2B1CD16E
:101DB400444B5B6803F48003002B16D1414B1B6832
:101DC40003F00203002B05D07B68DB68012B01D0F4
:101DD40001238FE13B493B4B1B6823F0F8027B68EE
:101DE4001B69DB0013430B603AE07B68DB68002B64
:101DF40020D0354B01221A60FFF7A6F9386108E0BC
:101E0400FFF7A2F902463B69D31A022B01D9032337
:101E140070E12C4B1B6803F00203002BF0D029491E
:101E2400284B1B6823F0F8027B681B69DB00134313
:101E34000B6015E0244B00221A60FFF785F9386126
:101E440008E0FFF781F902463B69D31A022B01D956
:101E540003234FE11B4B1B6803F00203002BF0D15B
:101E64007B681B6803F00803002B37D07B685B6931
:101E7400002B16D0154B01221A60FFF765F9386163
:101E840008E0FFF761F902463B69D31A022B01D936
:101E940003232FE10B4B5B6F03F00203002BF0D005
:101EA4001CE00A4B00221A60FFF74EF938610FE07C
:101EB400FFF74AF902463B69D31A022B08D90323D8
:101EC40018E100BF0038024000004742800E47423C
:101ED4008A4B5B6F03F00203002BE9D17B681B681C
:101EE40003F00403002B00F097800023FB75834B61
:101EF4001B6C03F08053002B0FD10023FB607F4A3F
:101F04007E4B1B6C43F0805313647C4B1B6C03F0BF
:101F14008053FB60FB680123FB75794B1B6803F45A
:101F24008073002B18D1764A754B1B6843F4807379
:101F34001360FFF709F9386108E0FFF705F9024675
:101F44003B69D31A022B01D90323D3E06C4B1B68E2
:101F540003F48073002BF0D07B689B68012B06D1BF
:101F6400664A664B1B6F43F0010313671CE07B68F2
:101F74009B68052B0CD1614A604B1B6F43F0040333
:101F840013675E4A5D4B1B6F43F0010313670BE05D
:101F94005A4A5A4B1B6F23F001031367574A574B96
:101FA4001B6F23F0040313677B689B68002B15D019
:101FB400FFF7CAF838610AE0FFF7C6F802463B6942
:101FC400D31A41F28832934201D9032392E04B4B56
:101FD4001B6F03F00203002BEED014E0FFF7B4F8FC
:101FE40038610AE0FFF7B0F802463B69D31A41F2C0
:101FF4008832934201D903237CE0404B1B6F03F0EA
:102004000203002BEED1FB7D012B05D13B4A3B4B58
:102014001B6C23F0805313647B689B69002B68D08E
:10202400364B9B6803F00C03082B60D07B689B69DC
:10203400022B45D1334B00221A60FFF785F8386133
:1020440008E0FFF781F802463B69D31A022B01D955
:1020540003234FE0294B1B6803F00073002BF0D1DE
:1020640026497B68DA697B681B6A1A437B685B6A6A
:102074009B011A437B689B6A5B08013B1B041A4360
:102084007B68DB6A1B061A437B681B6B1B071343C5
:102094004B601C4B01221A60FFF756F8386108E0C8
:1020A400FFF752F802463B69D31A022B01D90323E6
:1020B40020E0124B1B6803F00073002BF0D018E0F3
:1020C400104B00221A60FFF73FF8386108E0FFF771
:1020D4003BF802463B69D31A022B01D9032309E0DA
:1020E400064B1B6803F00073002BF0D101E00123C1
:1020F40000E0002318461837BD4680BD0038024072
:10210400007000406000474280B582B000AF786044
:102114007B68002B01D101231DE07B6893F83D30DF
:10212400DBB2002B06D17B68002283F83C20786860
:10213400FEF714FF7B68022283F83D207B681A684F
:102144007B6804331946104600F01AFC7B680122B0
:1021540083F83D20002318460837BD4680BD80B46F
:1021640085B000AF78607B681B687A681268D268B3
:1021740042F00102DA607B681B689B6803F0070386
:10218400FB60FB68062B07D07B681B687A681268C3
:10219400126842F001021A60002318461437BD4643
:1021A4005DF8047B704780B483B000AF78607B68CF
:1021B4001B687A681268D26822F00102DA607B68D0
:1021C4001B681A6A41F211131340002B0FD17B686C
:1021D4001B681A6A40F244431340002B07D17B6802
:1021E4001B687A681268126822F001021A600023E0
:1021F40018460C37BD465DF8047B704780B582B045
:1022040000AF78607B68002B01D101231DE07B685F
:1022140093F83D30DBB2002B06D17B68002283F8B3
:102224003C207868FEF7DAFE7B68022283F83D20C2
:102234007B681A687B6804331946104600F0A0FBDB
:102244007B68012283F83D20002318460837BD46E9
:1022540080BD000080B584B000AF786039603B6811
:102264000C2B41D801A252F823F000BFA52200088C
:10227400ED220008ED220008ED220008B722000834
:10228400ED220008ED220008ED220008C922000812
:10229400ED220008ED220008ED220008DB220008F0
:1022A4007B681B687A681268D26842F00202DA60BE
:1022B4001BE07B681B687A681268D26842F00402EB
:1022C400DA6012E07B681B687A681268D26842F0B0
:1022D4000802DA6009E07B681B687A681268D268D1
:1022E40042F01002DA6000E000BF7B681B68012244
:1022F4003968184600F0A8FD7B681B689B6803F0EA
:102304000703FB60FB68062B07D07B681B687A68B1
:102314001268126842F001021A600023184610374E
:10232400BD4680BD80B582B000AF786039603B683F
:102334000C2B41D801A252F823F000BF75230008EA
:10234400BD230008BD230008BD230008872300081F
:10235400BD230008BD230008BD23000899230008FD
:10236400BD230008BD230008BD230008AB230008DB
:102374007B681B687A681268D26822F00202DA600D
:102384001BE07B681B687A681268D26822F004023A
:10239400DA6012E07B681B687A681268D26822F0FF
:1023A4000802DA6009E07B681B687A681268D26800
:1023B40022F01002DA6000E000BF7B681B68002294
:1023C4003968184600F040FD7B681B681A6A41F2C0
:1023D40011131340002B0FD17B681B681A6A40F25B
:1023E40044431340002B07D17B681B687A6812684A
:1023F400126822F001021A60002318460837BD460D
:1024040080BD00BF80B582B000AF78607B681B6878
:102414001B6903F00203022B22D17B681B68DB6873
:1024240003F00203022B1BD17B681B686FF00202CE
:102434001A617B6801221A777B681B689B6903F029
:102444000303002B03D07868FEF7EAFB05E0786805
:1024540000F078FA786800F07FFA7B6800221A7737
:102464007B681B681B6903F00403042B22D17B687F
:102474001B68DB6803F00403042B1BD17B681B6817
:102484006FF004021A617B6802221A777B681B686A
:102494009B6903F44073002B03D07868FEF7C0FBFC
:1024A40005E0786800F04EFA786800F055FA7B6829
:1024B40000221A777B681B681B6903F00803082B4A
:1024C40022D17B681B68DB6803F00803082B1BD14F
:1024D4007B681B686FF008021A617B6804221A7714
:1024E4007B681B68DB6903F00303002B03D0786867
:1024F400FEF796FB05E0786800F024FA786800F0AF
:102504002BFA7B6800221A777B681B681B6903F02F
:102514001003102B22D17B681B68DB6803F01003C7
:10252400102B1BD17B681B686FF010021A617B684B
:1025340008221A777B681B68DB6903F44073002B5D
:1025440003D07868FEF76CFB05E0786800F0FAF9D0
:10255400786800F001FA7B6800221A777B681B68B0
:102564001B6903F00103012B0ED17B681B68DB6838
:1025740003F00103012B07D17B681B686FF0010294
:102584001A617868FEF71AFA7B681B681B6903F006
:102594008003802B0ED17B681B68DB6803F080030B
:1025A400802B07D17B681B686FF080021A61786802
:1025B40000F0F6FC7B681B681B6903F04003402BAA
:1025C4000ED17B681B68DB6803F04003402B07D106
:1025D4007B681B686FF040021A61786800F0C6F9E6
:1025E4007B681B681B6903F02003202B0ED17B68DA
:1025F4001B68DB6803F02003202B07D17B681B6872
:102604006FF020021A61786800F0C0FC00BF083740
:10261400BD4680BD80B584B000AFF860B9607A6013
:10262400FB6893F83C30012B01D102238AE0FB685C
:10263400012283F83C20FB68022283F83D207B685A
:10264400002B1BD1FB681868BB681968BB685A6803
:10265400BB68DB6800F034FAFB681B68FA68126830
:10266400926922F00C029A61FB681B68FA6812688E
:102674009169BA6892680A439A615AE07B68042BAC
:102684001CD1FB681868BB681968BB685A68BB68CA
:10269400DB6800F0B8FAFB681B68FA681268926994
:1026A40022F440629A61FB681B68FA6812689169B7
:1026B400BA68926812020A439A613AE07B68082B6E
:1026C4001BD1FB681868BB681968BB685A68BB688B
:1026D400DB6800F005FBFB681B68FA681268D269C6
:1026E40022F00C02DA61FB681B68FA681268D1698F
:1026F400BA6892680A43DA611BE0FB681868BB6831
:102704001968BB685A68BB68DB6800F025FBFB6886
:102714001B68FA681268D26922F44062DA61FB68C5
:102724001B68FA681268D169BA68926812020A438F
:10273400DA61FB68012283F83D20FB68002283F8FC
:102744003C20002318461037BD4680BD80B584B0B8
:1027540000AF786039607B6893F83C30012B01D17D
:102764000223A6E07B68012283F83C207B680222D6
:1027740083F83D207B681B689B68FB60FB6823F043
:102784007703FB60FB6823F47F43FB607B681B6873
:10279400FA689A603B681B68402B67D0402B0BD8C3
:1027A400102B73D0102B02D8002B6FD078E0202B85
:1027B4006CD0302B6AD073E0702B0DD0702B04D802
:1027C400502B33D0602B41D06AE0B3F5805F66D0E4
:1027D400B3F5005F17D063E07B6818683B689968BD
:1027E4003B685A683B68DB6800F00EFB7B681B683B
:1027F4009B68FB60FB6843F07703FB607B681B68A6
:10280400FA689A604CE07B6818683B6899683B6892
:102814005A683B68DB6800F0F7FA7B681B687A68E3
:102824001268926842F480429A6039E07B681868C2
:102834003B6859683B68DB681A4600F0B5F97B6869
:102844001B685021184600F0C4FA29E07B68186818
:102854003B6859683B68DB681A4600F011FA7B68EC
:102864001B686021184600F0B4FA19E07B68186808
:102874003B6859683B68DB681A4600F095F97B6849
:102884001B684021184600F0A4FA09E07B681A6826
:102894003B681B681946104600F09BFA00E000BF35
:1028A4007B68012283F83D207B68002283F83C206A
:1028B400002318461037BD4680BD000080B485B0A3
:1028C40000AF786039600023FB603B680C2B31D883
:1028D40001A252F823F000BF112900083929000889
:1028E40039290008392900081B290008392900085A
:1028F4003929000839290008252900083929000840
:1029040039290008392900082F2900087B681B6829
:102914005B6BFB600FE07B681B689B6BFB600AE0F2
:102924007B681B68DB6BFB6005E07B681B681B6CCA
:10293400FB6000E000BFFB6818461437BD465DF835
:10294400047B704780B483B000AF786000BF0C375D
:10295400BD465DF8047B704780B483B000AF7860F7
:1029640000BF0C37BD465DF8047B704780B483B06C
:1029740000AF786000BF0C37BD465DF8047B70473C
:1029840080B485B000AF786039607B681B68FB60F9
:102994007B68404A934213D07B68B3F1804F0FD0D9
:1029A4007B683D4A93420BD07B683C4A934207D0F4
:1029B4007B683B4A934203D07B683A4A934208D1EE
:1029C400FB6823F07003FB603B685B68FA681343A1
:1029D400FB607B682F4A93422BD07B68B3F1804F16
:1029E40027D07B682C4A934223D07B682B4A93429E
:1029F4001FD07B682A4A93421BD07B68294A9342A2
:102A040017D07B68284A934213D07B68274A9342A5
:102A14000FD07B68264A93420BD07B68254A9342A9
:102A240007D07B68244A934203D07B68234A9342AD
:102A340008D1FB6823F44073FB603B68DB68FA68E9
:102A44001343FB60FB6823F080023B685B6913431C
:102A5400FB607B68FA681A603B689A687B68DA6294
:102A64003B681A687B689A627B680A4A934203D07F
:102A74007B680C4A934203D13B681A697B681A63EA
:102A84007B6801225A6100BF1437BD465DF8047BA0
:102A9400704700BF000001400004004000080040EF
:102AA400000C00400004014000400140004401408B
:102AB4000048014000180040001C00400020004075
:102AC40080B487B000AFF860B9607A603B60FB689F
:102AD4001B6A23F00102FB681A62FB689B697B6135
:102AE400FB681B6A3B61FB68284A93421BD0FB6866
:102AF400B3F1804F17D0FB68254A934213D0FB688B
:102B0400244A93420FD0FB68234A93420BD0FB68BC
:102B1400224A934207D0FB68214A934203D0FB68C0
:102B2400204A934201D1012300E00023002B08D066
:102B34007B6923F003037B617A697B6813437B61C0
:102B440003E07B6943F001037B617B6923F0F003BD
:102B54007B613B681B01DBB27A6913437B613B6990
:102B640023F00A033B61BB6803F00A033A69134389
:102B74003B61FB687A699A61FB683A691A6200BF33
:102B84001C37BD465DF8047B704700BF0000014060
:102B94000004004000080040000C00400004014014
:102BA400004001400018004080B487B000AFF860D6
:102BB400B9607A60FB681B6A7B61FB681B6A23F05F
:102BC4000102FB681A62FB689B693B613B6923F065
:102BD400F0033B617B681B013A6913433B617B69EA
:102BE40023F00A037B617A69BB6813437B61FB684A
:102BF4003A699A61FB687A691A6200BF1C37BD465C
:102C04005DF8047B704780B487B000AFF860B960AA
:102C14007A603B60FB681B6A23F01002FB681A624F
:102C2400FB689B697B61FB681B6A3B617B6923F4DE
:102C340040737B617B681B027A6913437B617B6908
:102C440023F470437B613B681B039BB27A69134393
:102C54007B613B6923F0A0033B61BB681B0103F06C
:102C6400A0033A6913433B61FB687A699A61FB6884
:102C74003A691A6200BF1C37BD465DF8047B704791
:102C840080B487B000AFF860B9607A60FB681B6AF3
:102C940023F01002FB681A62FB689B697B61FB6886
:102CA4001B6A3B617B6923F470437B617B681B0374
:102CB4007A6913437B613B6923F0A0033B61BB68E2
:102CC4001B013A6913433B61FB687A699A61FB68AB
:102CD4003A691A6200BF1C37BD465DF8047B704731
:102CE40080B487B000AFF860B9607A603B60FB687D
:102CF4001B6A23F48072FB681A62FB68DB697B61E0
:102D0400FB681B6A3B617B6923F003037B617A697F
:102D14007B6813437B617B6923F0F0037B613B6831
:102D24001B01DBB27A6913437B613B6923F42063A3
:102D34003B61BB681B0203F420633A6913433B61A4
:102D4400FB687A69DA61FB683A691A6200BF1C376A
:102D5400BD465DF8047B704780B487B000AFF8606F
:102D6400B9607A603B60FB681B6A23F48052FB689D
:102D74001A62FB68DB697B61FB681B6A3B617B69E8
:102D840023F440737B617B681B027A6913437B6184
:102D94007B6923F470437B613B681B039BB27A69B4
:102DA40013437B613B6923F420433B61BB681B03F2
:102DB40003F420433A6913433B61FB687A69DA619F
:102DC400FB683A691A6200BF1C37BD465DF8047B94
:102DD400704780B485B000AF786039607B689B68C9
:102DE400FB60FB6823F07003FB603A68FB681343E5
:102DF40043F00703FB607B68FA689A6000BF1437EE
:102E0400BD465DF8047B704780B487B000AFF860BE
:102E1400B9607A603B60FB689B687B617B6923F4E3
:102E24007F437B613B681A027B681A43BB68134388
:102E34007A6913437B61FB687A699A6000BF1C3727
:102E4400BD465DF8047B704780B487B000AFF8607E
:102E5400B9607A60BB6803F01F03012202FA03F32E
:102E64007B61FB681A6A7B69DB431A40FB681A6260
:102E7400FB681A6ABB6803F01F03796801FA03F35D
:102E84001A43FB681A6200BF1C37BD465DF8047B19
:102E94007047000080B485B000AF786039607B680B
:102EA40093F83C30012B01D102235AE07B680122C4
:102EB40083F83C207B68022283F83D207B681B68F2
:102EC4005B68FB607B681B689B68BB60FB6823F0E6
:102ED4007003FB603B681B68FA681343FB607B6804
:102EE4001B68FA685A607B681B68214A934222D0A7
:102EF4007B681B68B3F1804F1DD07B681B681D4A3B
:102F0400934218D07B681B681B4A934213D07B689A
:102F14001B681A4A93420ED07B681B68184A934276
:102F240009D07B681B68174A934204D07B681B68EE
:102F3400154A93420CD1BB6823F08003BB603B6805
:102F44005B68BA681343BB607B681B68BA689A60A5
:102F54007B68012283F83D207B68002283F83C20B3
:102F6400002318461437BD465DF8047B704700BF44
:102F7400000001400004004000080040000C004034
:102F840000040140004001400018004080B483B0B8
:102F940000AF786000BF0C37BD465DF8047B704716
:102FA40080B483B000AF786000BF0C37BD465DF8D5
:102FB400047B7047DFF834D0002103E00C4B5B58EE
:102FC400435004310B480C4B42189A42F6D30B4A37
:102FD40002E0002342F8043B094B9A42F9D3FDF77F
:102FE400E3FE00F011F8FDF71FFB7047000002201C
:102FF4009C300008000000202C0000202C00002041
:10300400DC000020FEE7000070B50D4E0D4CA41B43
:10301400A4100025A54209D10B4E0C4C00F020F859
:10302400A41BA4100025A54205D170BD56F8253077
:1030340098470135EEE756F8253098470135F2E711
:103044009430000894300008943000089830000848
:1030540002440346934200D1704703F8011BF9E789
:10306400F8B500BFF8BC08BC9E467047F8B500BF71
:08307400F8BC08BC9E46704741
:10307C00000000000000000001020304060708091C
:08308C00A8D1FF7F0100000044
:04309400E901000846
:04309800C501000866
:10309C000000000000000000040000000000000020
:1030AC0008000000000000000C0000000000000000
:0C30BC000024F4001000000001000000DF
:0400000508002FB907
:00000001FF
